{"abi":[{"type":"function","name":"withdrawToOriginChain","inputs":[{"name":"destinationChainAddress","type":"string","internalType":"string"},{"name":"memo","type":"string","internalType":"string"}],"outputs":[],"stateMutability":"payable"},{"type":"function","name":"withdrawToSequencer","inputs":[{"name":"destinationChainAddress","type":"address","internalType":"address"}],"outputs":[],"stateMutability":"payable"},{"type":"event","name":"Ics20Withdrawal","inputs":[{"name":"sender","type":"address","indexed":true,"internalType":"address"},{"name":"amount","type":"uint256","indexed":true,"internalType":"uint256"},{"name":"destinationChainAddress","type":"string","indexed":false,"internalType":"string"},{"name":"memo","type":"string","indexed":false,"internalType":"string"}],"anonymous":false},{"type":"event","name":"SequencerWithdrawal","inputs":[{"name":"sender","type":"address","indexed":true,"internalType":"address"},{"name":"amount","type":"uint256","indexed":true,"internalType":"uint256"},{"name":"destinationChainAddress","type":"address","indexed":false,"internalType":"address"}],"anonymous":false}],"bytecode":{"object":"0x608060405234801561001057600080fd5b5061025d806100206000396000f3fe6080604052600436106100295760003560e01c806391bd1dde1461002e5780639a977afe14610043575b600080fd5b61004161003c366004610130565b610056565b005b61004161005136600461019c565b6100a4565b34336001600160a01b03167f0c64e29a5254a71c7f4e52b3d2d236348c80e00a00ba2e1961962bd2827c03fb8686868660405161009694939291906101f5565b60405180910390a350505050565b6040516001600160a01b0382168152349033907fae8e66664d108544509c9a5b6a9f33c3b5fef3f88e5d3fa680706a6feb1360e39060200160405180910390a350565b60008083601f8401126100f957600080fd5b50813567ffffffffffffffff81111561011157600080fd5b60208301915083602082850101111561012957600080fd5b9250929050565b6000806000806040858703121561014657600080fd5b843567ffffffffffffffff8082111561015e57600080fd5b61016a888389016100e7565b9096509450602087013591508082111561018357600080fd5b50610190878288016100e7565b95989497509550505050565b6000602082840312156101ae57600080fd5b81356001600160a01b03811681146101c557600080fd5b9392505050565b81835281816020850137506000828201602090810191909152601f909101601f19169091010190565b6040815260006102096040830186886101cc565b828103602084015261021c8185876101cc565b97965050505050505056fea264697066735822122041a209a86601cba45005d111f83f6e69b9edd145c4c2f0ef594aac8ff1e3ec0b64736f6c63430008150033","linkReferences":{}},"methodIdentifiers":{"withdrawToOriginChain(string,string)":"91bd1dde","withdrawToSequencer(address)":"9a977afe"},"id":20}