{"abi":[{"type":"constructor","inputs":[{"name":"_assetWithdrawalDecimals","type":"uint32","internalType":"uint32"}],"stateMutability":"nonpayable"},{"type":"function","name":"ASSET_WITHDRAWAL_DECIMALS","inputs":[],"outputs":[{"name":"","type":"uint32","internalType":"uint32"}],"stateMutability":"view"},{"type":"function","name":"withdrawToOriginChain","inputs":[{"name":"_destinationChainAddress","type":"string","internalType":"string"},{"name":"_memo","type":"string","internalType":"string"}],"outputs":[],"stateMutability":"payable"},{"type":"function","name":"withdrawToSequencer","inputs":[{"name":"_destinationChainAddress","type":"address","internalType":"address"}],"outputs":[],"stateMutability":"payable"},{"type":"event","name":"Ics20Withdrawal","inputs":[{"name":"sender","type":"address","indexed":true,"internalType":"address"},{"name":"amount","type":"uint256","indexed":true,"internalType":"uint256"},{"name":"destinationChainAddress","type":"string","indexed":false,"internalType":"string"},{"name":"memo","type":"string","indexed":false,"internalType":"string"}],"anonymous":false},{"type":"event","name":"SequencerWithdrawal","inputs":[{"name":"sender","type":"address","indexed":true,"internalType":"address"},{"name":"amount","type":"uint256","indexed":true,"internalType":"uint256"},{"name":"destinationChainAddress","type":"address","indexed":false,"internalType":"address"}],"anonymous":false}],"bytecode":{"object":"0x60a060405234801561001057600080fd5b5060405161033938038061033983398101604081905261002f9161003d565b63ffffffff1660805261006a565b60006020828403121561004f57600080fd5b815163ffffffff8116811461006357600080fd5b9392505050565b6080516102b56100846000396000604b01526102b56000f3fe6080604052600436106100345760003560e01c80638f2d8cb81461003957806391bd1dde146100865780639a977afe1461009b575b600080fd5b34801561004557600080fd5b5061006d7f000000000000000000000000000000000000000000000000000000000000000081565b60405163ffffffff909116815260200160405180910390f35b610099610094366004610188565b6100ae565b005b6100996100a93660046101f4565b6100fc565b34336001600160a01b03167f0c64e29a5254a71c7f4e52b3d2d236348c80e00a00ba2e1961962bd2827c03fb868686866040516100ee949392919061024d565b60405180910390a350505050565b6040516001600160a01b0382168152349033907fae8e66664d108544509c9a5b6a9f33c3b5fef3f88e5d3fa680706a6feb1360e39060200160405180910390a350565b60008083601f84011261015157600080fd5b50813567ffffffffffffffff81111561016957600080fd5b60208301915083602082850101111561018157600080fd5b9250929050565b6000806000806040858703121561019e57600080fd5b843567ffffffffffffffff808211156101b657600080fd5b6101c28883890161013f565b909650945060208701359150808211156101db57600080fd5b506101e88782880161013f565b95989497509550505050565b60006020828403121561020657600080fd5b81356001600160a01b038116811461021d57600080fd5b9392505050565b81835281816020850137506000828201602090810191909152601f909101601f19169091010190565b604081526000610261604083018688610224565b8281036020840152610274818587610224565b97965050505050505056fea2646970667358221220223b3349e5b30296601502d8cadec563676a22dc1752db90a362cc6e6174866864736f6c63430008150033","linkReferences":{}},"methodIdentifiers":{"ASSET_WITHDRAWAL_DECIMALS()":"8f2d8cb8","withdrawToOriginChain(string,string)":"91bd1dde","withdrawToSequencer(address)":"9a977afe"},"id":20}