{"abi":[{"type":"constructor","inputs":[{"name":"assetWithdrawalDecimals","type":"uint32","internalType":"uint32"}],"stateMutability":"nonpayable"},{"type":"function","name":"ASSET_WITHDRAWAL_DECIMALS","inputs":[],"outputs":[{"name":"","type":"uint32","internalType":"uint32"}],"stateMutability":"view"},{"type":"function","name":"withdrawToIbcChain","inputs":[{"name":"destinationChainAddress","type":"string","internalType":"string"},{"name":"memo","type":"string","internalType":"string"}],"outputs":[],"stateMutability":"payable"},{"type":"function","name":"withdrawToSequencer","inputs":[{"name":"destinationChainAddress","type":"address","internalType":"address"}],"outputs":[],"stateMutability":"payable"},{"type":"event","name":"Ics20Withdrawal","inputs":[{"name":"sender","type":"address","indexed":true,"internalType":"address"},{"name":"amount","type":"uint256","indexed":true,"internalType":"uint256"},{"name":"destinationChainAddress","type":"string","indexed":false,"internalType":"string"},{"name":"memo","type":"string","indexed":false,"internalType":"string"}],"anonymous":false},{"type":"event","name":"SequencerWithdrawal","inputs":[{"name":"sender","type":"address","indexed":true,"internalType":"address"},{"name":"amount","type":"uint256","indexed":true,"internalType":"uint256"},{"name":"destinationChainAddress","type":"address","indexed":false,"internalType":"address"}],"anonymous":false}],"bytecode":{"object":"0x60c060405234801561001057600080fd5b506040516105ab3803806105ab83398101604081905261002f9161004d565b63ffffffff811660805261004481600a610176565b60a05250610188565b60006020828403121561005f57600080fd5b815163ffffffff8116811461007357600080fd5b9392505050565b634e487b7160e01b600052601160045260246000fd5b600181815b808511156100cb5781600019048211156100b1576100b161007a565b808516156100be57918102915b93841c9390800290610095565b509250929050565b6000826100e257506001610170565b816100ef57506000610170565b8160018114610105576002811461010f5761012b565b6001915050610170565b60ff8411156101205761012061007a565b50506001821b610170565b5060208310610133831016604e8410600b841016171561014e575081810a610170565b6101588383610090565b806000190482111561016c5761016c61007a565b0290505b92915050565b600061007363ffffffff8416836100d3565b60805160a0516103f96101b26000396000818160b6015261014d01526000604b01526103f96000f3fe6080604052600436106100345760003560e01c80638f2d8cb8146100395780639a977afe14610086578063a996e0201461009b575b600080fd5b34801561004557600080fd5b5061006d7f000000000000000000000000000000000000000000000000000000000000000081565b60405163ffffffff909116815260200160405180910390f35b6100996100943660046101de565b6100ae565b005b6100996100a9366004610257565b610145565b3460006100db7f0000000000000000000000000000000000000000000000000000000000000000836102c3565b116101015760405162461bcd60e51b81526004016100f8906102e5565b60405180910390fd5b6040516001600160a01b0383168152349033907fae8e66664d108544509c9a5b6a9f33c3b5fef3f88e5d3fa680706a6feb1360e39060200160405180910390a35050565b3460006101727f0000000000000000000000000000000000000000000000000000000000000000836102c3565b1161018f5760405162461bcd60e51b81526004016100f8906102e5565b34336001600160a01b03167f0c64e29a5254a71c7f4e52b3d2d236348c80e00a00ba2e1961962bd2827c03fb878787876040516101cf9493929190610391565b60405180910390a35050505050565b6000602082840312156101f057600080fd5b81356001600160a01b038116811461020757600080fd5b9392505050565b60008083601f84011261022057600080fd5b50813567ffffffffffffffff81111561023857600080fd5b60208301915083602082850101111561025057600080fd5b9250929050565b6000806000806040858703121561026d57600080fd5b843567ffffffffffffffff8082111561028557600080fd5b6102918883890161020e565b909650945060208701359150808211156102aa57600080fd5b506102b78782880161020e565b95989497509550505050565b6000826102e057634e487b7160e01b600052601260045260246000fd5b500490565b60208082526058908201527f417374726961576974686472617765723a20696e73756666696369656e74207660408201527f616c75652c206d75737420626520646976697369626c652062792031302a2a4160608201527f535345545f5749544844524157414c5f444543494d414c530000000000000000608082015260a00190565b81835281816020850137506000828201602090810191909152601f909101601f19169091010190565b6040815260006103a5604083018688610368565b82810360208401526103b8818587610368565b97965050505050505056fea2646970667358221220c9349b6c21f2bd66bb947b986005e268a7169f47380fa7a4166c197a864aafa564736f6c63430008150033","linkReferences":{}},"methodIdentifiers":{"ASSET_WITHDRAWAL_DECIMALS()":"8f2d8cb8","withdrawToIbcChain(string,string)":"a996e020","withdrawToSequencer(address)":"9a977afe"},"id":20}