{"abi":[{"type":"constructor","inputs":[{"name":"_baseChainAssetPrecision","type":"uint32","internalType":"uint32"}],"stateMutability":"nonpayable"},{"type":"function","name":"BASE_CHAIN_ASSET_PRECISION","inputs":[],"outputs":[{"name":"","type":"uint32","internalType":"uint32"}],"stateMutability":"view"},{"type":"function","name":"withdrawToIbcChain","inputs":[{"name":"destinationChainAddress","type":"string","internalType":"string"},{"name":"memo","type":"string","internalType":"string"}],"outputs":[],"stateMutability":"payable"},{"type":"function","name":"withdrawToSequencer","inputs":[{"name":"destinationChainAddress","type":"address","internalType":"address"}],"outputs":[],"stateMutability":"payable"},{"type":"event","name":"Ics20Withdrawal","inputs":[{"name":"sender","type":"address","indexed":true,"internalType":"address"},{"name":"amount","type":"uint256","indexed":true,"internalType":"uint256"},{"name":"destinationChainAddress","type":"string","indexed":false,"internalType":"string"},{"name":"memo","type":"string","indexed":false,"internalType":"string"}],"anonymous":false},{"type":"event","name":"SequencerWithdrawal","inputs":[{"name":"sender","type":"address","indexed":true,"internalType":"address"},{"name":"amount","type":"uint256","indexed":true,"internalType":"uint256"},{"name":"destinationChainAddress","type":"address","indexed":false,"internalType":"address"}],"anonymous":false}],"bytecode":{"object":"0x60c060405234801561001057600080fd5b5060405161067c38038061067c83398101604081905261002f916100ef565b60128163ffffffff1611156100c65760405162461bcd60e51b815260206004820152604d60248201527f417374726961576974686472617765723a206261736520636861696e2061737360448201527f657420707265636973696f6e206d757374206265206c657373207468616e206f60648201526c0e440cae2eac2d840e8de40627609b1b608482015260a40160405180910390fd5b63ffffffff81166080526100db816012610132565b6100e690600a61023c565b60a0525061024e565b60006020828403121561010157600080fd5b815163ffffffff8116811461011557600080fd5b9392505050565b634e487b7160e01b600052601160045260246000fd5b63ffffffff82811682821603908082111561014f5761014f61011c565b5092915050565b600181815b808511156101915781600019048211156101775761017761011c565b8085161561018457918102915b93841c939080029061015b565b509250929050565b6000826101a857506001610236565b816101b557506000610236565b81600181146101cb57600281146101d5576101f1565b6001915050610236565b60ff8411156101e6576101e661011c565b50506001821b610236565b5060208310610133831016604e8410600b8410161715610214575081810a610236565b61021e8383610156565b80600019048211156102325761023261011c565b0290505b92915050565b600061011563ffffffff841683610199565b60805160a0516104046102786000396000818160b6015261014d01526000604b01526104046000f3fe6080604052600436106100345760003560e01c80637eb6dec7146100395780639a977afe14610086578063a996e0201461009b575b600080fd5b34801561004557600080fd5b5061006d7f000000000000000000000000000000000000000000000000000000000000000081565b60405163ffffffff909116815260200160405180910390f35b6100996100943660046101de565b6100ae565b005b6100996100a9366004610257565b610145565b3460006100db7f0000000000000000000000000000000000000000000000000000000000000000836102c3565b116101015760405162461bcd60e51b81526004016100f8906102e5565b60405180910390fd5b6040516001600160a01b0383168152349033907fae8e66664d108544509c9a5b6a9f33c3b5fef3f88e5d3fa680706a6feb1360e39060200160405180910390a35050565b3460006101727f0000000000000000000000000000000000000000000000000000000000000000836102c3565b1161018f5760405162461bcd60e51b81526004016100f8906102e5565b34336001600160a01b03167f0c64e29a5254a71c7f4e52b3d2d236348c80e00a00ba2e1961962bd2827c03fb878787876040516101cf949392919061039c565b60405180910390a35050505050565b6000602082840312156101f057600080fd5b81356001600160a01b038116811461020757600080fd5b9392505050565b60008083601f84011261022057600080fd5b50813567ffffffffffffffff81111561023857600080fd5b60208301915083602082850101111561025057600080fd5b9250929050565b6000806000806040858703121561026d57600080fd5b843567ffffffffffffffff8082111561028557600080fd5b6102918883890161020e565b909650945060208701359150808211156102aa57600080fd5b506102b78782880161020e565b95989497509550505050565b6000826102e057634e487b7160e01b600052601260045260246000fd5b500490565b60208082526062908201527f417374726961576974686472617765723a20696e73756666696369656e74207660408201527f616c75652c206d7573742062652067726561746572207468616e203130202a2a60608201527f20283138202d20424153455f434841494e5f41535345545f505245434953494f6080820152614e2960f01b60a082015260c00190565b81835281816020850137506000828201602090810191909152601f909101601f19169091010190565b6040815260006103b0604083018688610373565b82810360208401526103c3818587610373565b97965050505050505056fea26469706673582212202727e6981832894eaacaf80cf4c043b07a5d415ff03277227618468e6acec74464736f6c63430008150033","linkReferences":{}},"methodIdentifiers":{"BASE_CHAIN_ASSET_PRECISION()":"7eb6dec7","withdrawToIbcChain(string,string)":"a996e020","withdrawToSequencer(address)":"9a977afe"},"id":20}