{"abi":[{"type":"function","name":"withdraw","inputs":[{"name":"memo","type":"bytes","internalType":"bytes"}],"outputs":[],"stateMutability":"payable"},{"type":"event","name":"Withdrawal","inputs":[{"name":"sender","type":"address","indexed":true,"internalType":"address"},{"name":"amount","type":"uint256","indexed":true,"internalType":"uint256"},{"name":"memo","type":"bytes","indexed":false,"internalType":"bytes"}],"anonymous":false}],"bytecode":{"object":"0x608060405234801561001057600080fd5b50610157806100206000396000f3fe60806040526004361061001e5760003560e01c80630968f26414610023575b600080fd5b610036610031366004610080565b610038565b005b34336001600160a01b03167f180489ed98391c12b0b024acb7dcd85ce43619bcf0780aeca68aa3dd44651a5d84846040516100749291906100f2565b60405180910390a35050565b6000806020838503121561009357600080fd5b823567ffffffffffffffff808211156100ab57600080fd5b818501915085601f8301126100bf57600080fd5b8135818111156100ce57600080fd5b8660208285010111156100e057600080fd5b60209290920196919550909350505050565b60208152816020820152818360408301376000818301604090810191909152601f909201601f1916010191905056fea26469706673582212201aaa74e63d8536d6bf6f782d9c2d7970b155e0ee1b1c634d3f0ac53f62c7dc2f64736f6c63430008150033","linkReferences":{}},"methodIdentifiers":{"withdraw(bytes)":"0968f264"},"id":0}