{"abi":[{"type":"constructor","inputs":[{"name":"_bridge","type":"address","internalType":"address"},{"name":"_assetWithdrawalDecimals","type":"uint32","internalType":"uint32"},{"name":"_name","type":"string","internalType":"string"},{"name":"_symbol","type":"string","internalType":"string"}],"stateMutability":"nonpayable"},{"type":"function","name":"ASSET_WITHDRAWAL_DECIMALS","inputs":[],"outputs":[{"name":"","type":"uint32","internalType":"uint32"}],"stateMutability":"view"},{"type":"function","name":"BRIDGE","inputs":[],"outputs":[{"name":"","type":"address","internalType":"address"}],"stateMutability":"view"},{"type":"function","name":"allowance","inputs":[{"name":"owner","type":"address","internalType":"address"},{"name":"spender","type":"address","internalType":"address"}],"outputs":[{"name":"","type":"uint256","internalType":"uint256"}],"stateMutability":"view"},{"type":"function","name":"approve","inputs":[{"name":"spender","type":"address","internalType":"address"},{"name":"value","type":"uint256","internalType":"uint256"}],"outputs":[{"name":"","type":"bool","internalType":"bool"}],"stateMutability":"nonpayable"},{"type":"function","name":"balanceOf","inputs":[{"name":"account","type":"address","internalType":"address"}],"outputs":[{"name":"","type":"uint256","internalType":"uint256"}],"stateMutability":"view"},{"type":"function","name":"decimals","inputs":[],"outputs":[{"name":"","type":"uint8","internalType":"uint8"}],"stateMutability":"view"},{"type":"function","name":"mint","inputs":[{"name":"_to","type":"address","internalType":"address"},{"name":"_amount","type":"uint256","internalType":"uint256"}],"outputs":[],"stateMutability":"nonpayable"},{"type":"function","name":"name","inputs":[],"outputs":[{"name":"","type":"string","internalType":"string"}],"stateMutability":"view"},{"type":"function","name":"symbol","inputs":[],"outputs":[{"name":"","type":"string","internalType":"string"}],"stateMutability":"view"},{"type":"function","name":"totalSupply","inputs":[],"outputs":[{"name":"","type":"uint256","internalType":"uint256"}],"stateMutability":"view"},{"type":"function","name":"transfer","inputs":[{"name":"to","type":"address","internalType":"address"},{"name":"value","type":"uint256","internalType":"uint256"}],"outputs":[{"name":"","type":"bool","internalType":"bool"}],"stateMutability":"nonpayable"},{"type":"function","name":"transferFrom","inputs":[{"name":"from","type":"address","internalType":"address"},{"name":"to","type":"address","internalType":"address"},{"name":"value","type":"uint256","internalType":"uint256"}],"outputs":[{"name":"","type":"bool","internalType":"bool"}],"stateMutability":"nonpayable"},{"type":"function","name":"withdrawToIbcChain","inputs":[{"name":"_amount","type":"uint256","internalType":"uint256"},{"name":"_destinationChainAddress","type":"string","internalType":"string"},{"name":"_memo","type":"string","internalType":"string"}],"outputs":[],"stateMutability":"nonpayable"},{"type":"function","name":"withdrawToSequencer","inputs":[{"name":"_amount","type":"uint256","internalType":"uint256"},{"name":"_destinationChainAddress","type":"address","internalType":"address"}],"outputs":[],"stateMutability":"nonpayable"},{"type":"event","name":"Approval","inputs":[{"name":"owner","type":"address","indexed":true,"internalType":"address"},{"name":"spender","type":"address","indexed":true,"internalType":"address"},{"name":"value","type":"uint256","indexed":false,"internalType":"uint256"}],"anonymous":false},{"type":"event","name":"Ics20Withdrawal","inputs":[{"name":"sender","type":"address","indexed":true,"internalType":"address"},{"name":"amount","type":"uint256","indexed":true,"internalType":"uint256"},{"name":"destinationChainAddress","type":"string","indexed":false,"internalType":"string"},{"name":"memo","type":"string","indexed":false,"internalType":"string"}],"anonymous":false},{"type":"event","name":"Mint","inputs":[{"name":"account","type":"address","indexed":true,"internalType":"address"},{"name":"amount","type":"uint256","indexed":false,"internalType":"uint256"}],"anonymous":false},{"type":"event","name":"SequencerWithdrawal","inputs":[{"name":"sender","type":"address","indexed":true,"internalType":"address"},{"name":"amount","type":"uint256","indexed":true,"internalType":"uint256"},{"name":"destinationChainAddress","type":"address","indexed":false,"internalType":"address"}],"anonymous":false},{"type":"event","name":"Transfer","inputs":[{"name":"from","type":"address","indexed":true,"internalType":"address"},{"name":"to","type":"address","indexed":true,"internalType":"address"},{"name":"value","type":"uint256","indexed":false,"internalType":"uint256"}],"anonymous":false},{"type":"error","name":"ERC20InsufficientAllowance","inputs":[{"name":"spender","type":"address","internalType":"address"},{"name":"allowance","type":"uint256","internalType":"uint256"},{"name":"needed","type":"uint256","internalType":"uint256"}]},{"type":"error","name":"ERC20InsufficientBalance","inputs":[{"name":"sender","type":"address","internalType":"address"},{"name":"balance","type":"uint256","internalType":"uint256"},{"name":"needed","type":"uint256","internalType":"uint256"}]},{"type":"error","name":"ERC20InvalidApprover","inputs":[{"name":"approver","type":"address","internalType":"address"}]},{"type":"error","name":"ERC20InvalidReceiver","inputs":[{"name":"receiver","type":"address","internalType":"address"}]},{"type":"error","name":"ERC20InvalidSender","inputs":[{"name":"sender","type":"address","internalType":"address"}]},{"type":"error","name":"ERC20InvalidSpender","inputs":[{"name":"spender","type":"address","internalType":"address"}]}],"bytecode":{"object":"0x60c06040523480156200001157600080fd5b5060405162000eca38038062000eca83398101604081905262000034916200013a565b8181600362000044838262000271565b50600462000053828262000271565b5050506001600160a01b0390931660a0525063ffffffff16608052506200033d565b634e487b7160e01b600052604160045260246000fd5b600082601f8301126200009d57600080fd5b81516001600160401b0380821115620000ba57620000ba62000075565b604051601f8301601f19908116603f01168101908282118183101715620000e557620000e562000075565b816040528381526020925086838588010111156200010257600080fd5b600091505b8382101562000126578582018301518183018401529082019062000107565b600093810190920192909252949350505050565b600080600080608085870312156200015157600080fd5b84516001600160a01b03811681146200016957600080fd5b602086015190945063ffffffff811681146200018457600080fd5b60408601519093506001600160401b0380821115620001a257600080fd5b620001b0888389016200008b565b93506060870151915080821115620001c757600080fd5b50620001d6878288016200008b565b91505092959194509250565b600181811c90821680620001f757607f821691505b6020821081036200021857634e487b7160e01b600052602260045260246000fd5b50919050565b601f8211156200026c57600081815260208120601f850160051c81016020861015620002475750805b601f850160051c820191505b81811015620002685782815560010162000253565b5050505b505050565b81516001600160401b038111156200028d576200028d62000075565b620002a5816200029e8454620001e2565b846200021e565b602080601f831160018114620002dd5760008415620002c45750858301515b600019600386901b1c1916600185901b17855562000268565b600085815260208120601f198616915b828110156200030e57888601518255948401946001909101908401620002ed565b50858210156200032d5787850151600019600388901b60f8161c191681555b5050505050600190811b01905550565b60805160a051610b606200036a6000396000818161025d0152610372015260006101cd0152610b606000f3fe608060405234801561001057600080fd5b50600436106100ea5760003560e01c806370a082311161008c57806395d89b411161006657806395d89b4114610204578063a9059cbb1461020c578063dd62ed3e1461021f578063ee9a31a21461025857600080fd5b806370a082311461018c578063757e9874146101b55780638f2d8cb8146101c857600080fd5b806323b872dd116100c857806323b872dd14610142578063313ce5671461015557806340c10f19146101645780635fe56b091461017957600080fd5b806306fdde03146100ef578063095ea7b31461010d57806318160ddd14610130575b600080fd5b6100f7610297565b6040516101049190610869565b60405180910390f35b61012061011b3660046108d3565b610329565b6040519015158152602001610104565b6002545b604051908152602001610104565b6101206101503660046108fd565b610343565b60405160128152602001610104565b6101776101723660046108d3565b610367565b005b610177610187366004610982565b610447565b61013461019a3660046109fc565b6001600160a01b031660009081526020819052604090205490565b6101776101c3366004610a1e565b6104a0565b6101ef7f000000000000000000000000000000000000000000000000000000000000000081565b60405163ffffffff9091168152602001610104565b6100f76104ee565b61012061021a3660046108d3565b6104fd565b61013461022d366004610a4a565b6001600160a01b03918216600090815260016020908152604080832093909416825291909152205490565b61027f7f000000000000000000000000000000000000000000000000000000000000000081565b6040516001600160a01b039091168152602001610104565b6060600380546102a690610a74565b80601f01602080910402602001604051908101604052809291908181526020018280546102d290610a74565b801561031f5780601f106102f45761010080835404028352916020019161031f565b820191906000526020600020905b81548152906001019060200180831161030257829003601f168201915b5050505050905090565b60003361033781858561050b565b60019150505b92915050565b60003361035185828561051d565b61035c85858561059b565b506001949350505050565b336001600160a01b037f000000000000000000000000000000000000000000000000000000000000000016146103f65760405162461bcd60e51b815260206004820152602960248201527f4173747269614d696e7461626c6545524332303a206f6e6c79206272696467656044820152680818d85b881b5a5b9d60ba1b60648201526084015b60405180910390fd5b61040082826105fa565b816001600160a01b03167f0f6798a560793a54c3bcfe86a93cde1e73087d944c0ea20544137d41213968858260405161043b91815260200190565b60405180910390a25050565b6104513386610634565b84336001600160a01b03167f0c64e29a5254a71c7f4e52b3d2d236348c80e00a00ba2e1961962bd2827c03fb868686866040516104919493929190610ad7565b60405180910390a35050505050565b6104aa3383610634565b6040516001600160a01b0382168152829033907fae8e66664d108544509c9a5b6a9f33c3b5fef3f88e5d3fa680706a6feb1360e39060200160405180910390a35050565b6060600480546102a690610a74565b60003361033781858561059b565b610518838383600161066a565b505050565b6001600160a01b038381166000908152600160209081526040808320938616835292905220546000198114610595578181101561058657604051637dc7a0d960e11b81526001600160a01b038416600482015260248101829052604481018390526064016103ed565b6105958484848403600061066a565b50505050565b6001600160a01b0383166105c557604051634b637e8f60e11b8152600060048201526024016103ed565b6001600160a01b0382166105ef5760405163ec442f0560e01b8152600060048201526024016103ed565b61051883838361073f565b6001600160a01b0382166106245760405163ec442f0560e01b8152600060048201526024016103ed565b6106306000838361073f565b5050565b6001600160a01b03821661065e57604051634b637e8f60e11b8152600060048201526024016103ed565b6106308260008361073f565b6001600160a01b0384166106945760405163e602df0560e01b8152600060048201526024016103ed565b6001600160a01b0383166106be57604051634a1406b160e11b8152600060048201526024016103ed565b6001600160a01b038085166000908152600160209081526040808320938716835292905220829055801561059557826001600160a01b0316846001600160a01b03167f8c5be1e5ebec7d5bd14f71427d1e84f3dd0314c0f7b2291e5b200ac8c7c3b9258460405161073191815260200190565b60405180910390a350505050565b6001600160a01b03831661076a57806002600082825461075f9190610b09565b909155506107dc9050565b6001600160a01b038316600090815260208190526040902054818110156107bd5760405163391434e360e21b81526001600160a01b038516600482015260248101829052604481018390526064016103ed565b6001600160a01b03841660009081526020819052604090209082900390555b6001600160a01b0382166107f857600280548290039055610817565b6001600160a01b03821660009081526020819052604090208054820190555b816001600160a01b0316836001600160a01b03167fddf252ad1be2c89b69c2b068fc378daa952ba7f163c4a11628f55a4df523b3ef8360405161085c91815260200190565b60405180910390a3505050565b600060208083528351808285015260005b818110156108965785810183015185820160400152820161087a565b506000604082860101526040601f19601f8301168501019250505092915050565b80356001600160a01b03811681146108ce57600080fd5b919050565b600080604083850312156108e657600080fd5b6108ef836108b7565b946020939093013593505050565b60008060006060848603121561091257600080fd5b61091b846108b7565b9250610929602085016108b7565b9150604084013590509250925092565b60008083601f84011261094b57600080fd5b50813567ffffffffffffffff81111561096357600080fd5b60208301915083602082850101111561097b57600080fd5b9250929050565b60008060008060006060868803121561099a57600080fd5b85359450602086013567ffffffffffffffff808211156109b957600080fd5b6109c589838a01610939565b909650945060408801359150808211156109de57600080fd5b506109eb88828901610939565b969995985093965092949392505050565b600060208284031215610a0e57600080fd5b610a17826108b7565b9392505050565b60008060408385031215610a3157600080fd5b82359150610a41602084016108b7565b90509250929050565b60008060408385031215610a5d57600080fd5b610a66836108b7565b9150610a41602084016108b7565b600181811c90821680610a8857607f821691505b602082108103610aa857634e487b7160e01b600052602260045260246000fd5b50919050565b81835281816020850137506000828201602090810191909152601f909101601f19169091010190565b604081526000610aeb604083018688610aae565b8281036020840152610afe818587610aae565b979650505050505050565b8082018082111561033d57634e487b7160e01b600052601160045260246000fdfea2646970667358221220c8bb8e84f31d2cd3842d6805458faf619488f92cc2dac5a0b29bc0646c51fc3f64736f6c63430008150033","linkReferences":{}},"methodIdentifiers":{"ASSET_WITHDRAWAL_DECIMALS()":"8f2d8cb8","BRIDGE()":"ee9a31a2","allowance(address,address)":"dd62ed3e","approve(address,uint256)":"095ea7b3","balanceOf(address)":"70a08231","decimals()":"313ce567","mint(address,uint256)":"40c10f19","name()":"06fdde03","symbol()":"95d89b41","totalSupply()":"18160ddd","transfer(address,uint256)":"a9059cbb","transferFrom(address,address,uint256)":"23b872dd","withdrawToIbcChain(uint256,string,string)":"5fe56b09","withdrawToSequencer(uint256,address)":"757e9874"},"id":25}