{"abi":[{"type":"constructor","inputs":[{"name":"_bridge","type":"address","internalType":"address"},{"name":"_baseChainAssetPrecision","type":"uint32","internalType":"uint32"},{"name":"_name","type":"string","internalType":"string"},{"name":"_symbol","type":"string","internalType":"string"}],"stateMutability":"nonpayable"},{"type":"function","name":"BASE_CHAIN_ASSET_PRECISION","inputs":[],"outputs":[{"name":"","type":"uint32","internalType":"uint32"}],"stateMutability":"view"},{"type":"function","name":"BRIDGE","inputs":[],"outputs":[{"name":"","type":"address","internalType":"address"}],"stateMutability":"view"},{"type":"function","name":"allowance","inputs":[{"name":"owner","type":"address","internalType":"address"},{"name":"spender","type":"address","internalType":"address"}],"outputs":[{"name":"","type":"uint256","internalType":"uint256"}],"stateMutability":"view"},{"type":"function","name":"approve","inputs":[{"name":"spender","type":"address","internalType":"address"},{"name":"value","type":"uint256","internalType":"uint256"}],"outputs":[{"name":"","type":"bool","internalType":"bool"}],"stateMutability":"nonpayable"},{"type":"function","name":"balanceOf","inputs":[{"name":"account","type":"address","internalType":"address"}],"outputs":[{"name":"","type":"uint256","internalType":"uint256"}],"stateMutability":"view"},{"type":"function","name":"decimals","inputs":[],"outputs":[{"name":"","type":"uint8","internalType":"uint8"}],"stateMutability":"view"},{"type":"function","name":"mint","inputs":[{"name":"_to","type":"address","internalType":"address"},{"name":"_amount","type":"uint256","internalType":"uint256"}],"outputs":[],"stateMutability":"nonpayable"},{"type":"function","name":"name","inputs":[],"outputs":[{"name":"","type":"string","internalType":"string"}],"stateMutability":"view"},{"type":"function","name":"symbol","inputs":[],"outputs":[{"name":"","type":"string","internalType":"string"}],"stateMutability":"view"},{"type":"function","name":"totalSupply","inputs":[],"outputs":[{"name":"","type":"uint256","internalType":"uint256"}],"stateMutability":"view"},{"type":"function","name":"transfer","inputs":[{"name":"to","type":"address","internalType":"address"},{"name":"value","type":"uint256","internalType":"uint256"}],"outputs":[{"name":"","type":"bool","internalType":"bool"}],"stateMutability":"nonpayable"},{"type":"function","name":"transferFrom","inputs":[{"name":"from","type":"address","internalType":"address"},{"name":"to","type":"address","internalType":"address"},{"name":"value","type":"uint256","internalType":"uint256"}],"outputs":[{"name":"","type":"bool","internalType":"bool"}],"stateMutability":"nonpayable"},{"type":"function","name":"withdrawToIbcChain","inputs":[{"name":"_amount","type":"uint256","internalType":"uint256"},{"name":"_destinationChainAddress","type":"string","internalType":"string"},{"name":"_memo","type":"string","internalType":"string"}],"outputs":[],"stateMutability":"nonpayable"},{"type":"function","name":"withdrawToSequencer","inputs":[{"name":"_amount","type":"uint256","internalType":"uint256"},{"name":"_destinationChainAddress","type":"address","internalType":"address"}],"outputs":[],"stateMutability":"nonpayable"},{"type":"event","name":"Approval","inputs":[{"name":"owner","type":"address","indexed":true,"internalType":"address"},{"name":"spender","type":"address","indexed":true,"internalType":"address"},{"name":"value","type":"uint256","indexed":false,"internalType":"uint256"}],"anonymous":false},{"type":"event","name":"Ics20Withdrawal","inputs":[{"name":"sender","type":"address","indexed":true,"internalType":"address"},{"name":"amount","type":"uint256","indexed":true,"internalType":"uint256"},{"name":"destinationChainAddress","type":"string","indexed":false,"internalType":"string"},{"name":"memo","type":"string","indexed":false,"internalType":"string"}],"anonymous":false},{"type":"event","name":"Mint","inputs":[{"name":"account","type":"address","indexed":true,"internalType":"address"},{"name":"amount","type":"uint256","indexed":false,"internalType":"uint256"}],"anonymous":false},{"type":"event","name":"SequencerWithdrawal","inputs":[{"name":"sender","type":"address","indexed":true,"internalType":"address"},{"name":"amount","type":"uint256","indexed":true,"internalType":"uint256"},{"name":"destinationChainAddress","type":"address","indexed":false,"internalType":"address"}],"anonymous":false},{"type":"event","name":"Transfer","inputs":[{"name":"from","type":"address","indexed":true,"internalType":"address"},{"name":"to","type":"address","indexed":true,"internalType":"address"},{"name":"value","type":"uint256","indexed":false,"internalType":"uint256"}],"anonymous":false},{"type":"error","name":"ERC20InsufficientAllowance","inputs":[{"name":"spender","type":"address","internalType":"address"},{"name":"allowance","type":"uint256","internalType":"uint256"},{"name":"needed","type":"uint256","internalType":"uint256"}]},{"type":"error","name":"ERC20InsufficientBalance","inputs":[{"name":"sender","type":"address","internalType":"address"},{"name":"balance","type":"uint256","internalType":"uint256"},{"name":"needed","type":"uint256","internalType":"uint256"}]},{"type":"error","name":"ERC20InvalidApprover","inputs":[{"name":"approver","type":"address","internalType":"address"}]},{"type":"error","name":"ERC20InvalidReceiver","inputs":[{"name":"receiver","type":"address","internalType":"address"}]},{"type":"error","name":"ERC20InvalidSender","inputs":[{"name":"sender","type":"address","internalType":"address"}]},{"type":"error","name":"ERC20InvalidSpender","inputs":[{"name":"spender","type":"address","internalType":"address"}]}],"bytecode":{"object":"0x60e06040523480156200001157600080fd5b506040516200125e3803806200125e83398101604081905262000034916200021d565b8181600362000044838262000354565b50600462000053828262000354565b5050506000620000686200015360201b60201c565b90508060ff168463ffffffff161115620001145760405162461bcd60e51b815260206004820152605c60248201527f4173747269614d696e7461626c6545524332303a206261736520636861696e2060448201527f617373657420707265636973696f6e206d757374206265206c6573732074686160648201527f6e206f7220657175616c20746f20746f6b656e20646563696d616c7300000000608482015260a40160405180910390fd5b63ffffffff84166080526200012d8460ff831662000436565b6200013a90600a6200055c565b60c052505050506001600160a01b031660a05262000577565b601290565b634e487b7160e01b600052604160045260246000fd5b600082601f8301126200018057600080fd5b81516001600160401b03808211156200019d576200019d62000158565b604051601f8301601f19908116603f01168101908282118183101715620001c857620001c862000158565b81604052838152602092508683858801011115620001e557600080fd5b600091505b83821015620002095785820183015181830184015290820190620001ea565b600093810190920192909252949350505050565b600080600080608085870312156200023457600080fd5b84516001600160a01b03811681146200024c57600080fd5b602086015190945063ffffffff811681146200026757600080fd5b60408601519093506001600160401b03808211156200028557600080fd5b62000293888389016200016e565b93506060870151915080821115620002aa57600080fd5b50620002b9878288016200016e565b91505092959194509250565b600181811c90821680620002da57607f821691505b602082108103620002fb57634e487b7160e01b600052602260045260246000fd5b50919050565b601f8211156200034f57600081815260208120601f850160051c810160208610156200032a5750805b601f850160051c820191505b818110156200034b5782815560010162000336565b5050505b505050565b81516001600160401b0381111562000370576200037062000158565b6200038881620003818454620002c5565b8462000301565b602080601f831160018114620003c05760008415620003a75750858301515b600019600386901b1c1916600185901b1785556200034b565b600085815260208120601f198616915b82811015620003f157888601518255948401946001909101908401620003d0565b5085821015620004105787850151600019600388901b60f8161c191681555b5050505050600190811b01905550565b634e487b7160e01b600052601160045260246000fd5b63ffffffff82811682821603908082111562000456576200045662000420565b5092915050565b600181815b808511156200049e57816000190482111562000482576200048262000420565b808516156200049057918102915b93841c939080029062000462565b509250929050565b600082620004b75750600162000556565b81620004c65750600062000556565b8160018114620004df5760028114620004ea576200050a565b600191505062000556565b60ff841115620004fe57620004fe62000420565b50506001821b62000556565b5060208310610133831016604e8410600b84101617156200052f575081810a62000556565b6200053b83836200045d565b806000190482111562000552576200055262000420565b0290505b92915050565b60006200057063ffffffff841683620004a6565b9392505050565b60805160a05160c051610ca9620005b56000396000818161044f01526104f301526000818161025d0152610372015260006101cd0152610ca96000f3fe608060405234801561001057600080fd5b50600436106100ea5760003560e01c806370a082311161008c57806395d89b411161006657806395d89b4114610204578063a9059cbb1461020c578063dd62ed3e1461021f578063ee9a31a21461025857600080fd5b806370a082311461018c578063757e9874146101b55780637eb6dec7146101c857600080fd5b806323b872dd116100c857806323b872dd14610142578063313ce5671461015557806340c10f19146101645780635fe56b091461017957600080fd5b806306fdde03146100ef578063095ea7b31461010d57806318160ddd14610130575b600080fd5b6100f7610297565b60405161010491906108f3565b60405180910390f35b61012061011b36600461095d565b610329565b6040519015158152602001610104565b6002545b604051908152602001610104565b610120610150366004610987565b610343565b60405160128152602001610104565b61017761017236600461095d565b610367565b005b610177610187366004610a0c565b610447565b61013461019a366004610a86565b6001600160a01b031660009081526020819052604090205490565b6101776101c3366004610aa8565b6104eb565b6101ef7f000000000000000000000000000000000000000000000000000000000000000081565b60405163ffffffff9091168152602001610104565b6100f7610585565b61012061021a36600461095d565b610594565b61013461022d366004610ad4565b6001600160a01b03918216600090815260016020908152604080832093909416825291909152205490565b61027f7f000000000000000000000000000000000000000000000000000000000000000081565b6040516001600160a01b039091168152602001610104565b6060600380546102a690610afe565b80601f01602080910402602001604051908101604052809291908181526020018280546102d290610afe565b801561031f5780601f106102f45761010080835404028352916020019161031f565b820191906000526020600020905b81548152906001019060200180831161030257829003601f168201915b5050505050905090565b6000336103378185856105a2565b60019150505b92915050565b6000336103518582856105b4565b61035c858585610632565b506001949350505050565b336001600160a01b037f000000000000000000000000000000000000000000000000000000000000000016146103f65760405162461bcd60e51b815260206004820152602960248201527f4173747269614d696e7461626c6545524332303a206f6e6c79206272696467656044820152680818d85b881b5a5b9d60ba1b60648201526084015b60405180910390fd5b6104008282610691565b816001600160a01b03167f0f6798a560793a54c3bcfe86a93cde1e73087d944c0ea20544137d41213968858260405161043b91815260200190565b60405180910390a25050565b8460006104747f000000000000000000000000000000000000000000000000000000000000000083610b38565b116104915760405162461bcd60e51b81526004016103ed90610b5a565b61049b33876106cb565b85336001600160a01b03167f0c64e29a5254a71c7f4e52b3d2d236348c80e00a00ba2e1961962bd2827c03fb878787876040516104db9493929190610c20565b60405180910390a3505050505050565b8160006105187f000000000000000000000000000000000000000000000000000000000000000083610b38565b116105355760405162461bcd60e51b81526004016103ed90610b5a565b61053f33846106cb565b6040516001600160a01b0383168152839033907fae8e66664d108544509c9a5b6a9f33c3b5fef3f88e5d3fa680706a6feb1360e3906020015b60405180910390a3505050565b6060600480546102a690610afe565b600033610337818585610632565b6105af8383836001610701565b505050565b6001600160a01b03838116600090815260016020908152604080832093861683529290522054600019811461062c578181101561061d57604051637dc7a0d960e11b81526001600160a01b038416600482015260248101829052604481018390526064016103ed565b61062c84848484036000610701565b50505050565b6001600160a01b03831661065c57604051634b637e8f60e11b8152600060048201526024016103ed565b6001600160a01b0382166106865760405163ec442f0560e01b8152600060048201526024016103ed565b6105af8383836107d6565b6001600160a01b0382166106bb5760405163ec442f0560e01b8152600060048201526024016103ed565b6106c7600083836107d6565b5050565b6001600160a01b0382166106f557604051634b637e8f60e11b8152600060048201526024016103ed565b6106c7826000836107d6565b6001600160a01b03841661072b5760405163e602df0560e01b8152600060048201526024016103ed565b6001600160a01b03831661075557604051634a1406b160e11b8152600060048201526024016103ed565b6001600160a01b038085166000908152600160209081526040808320938716835292905220829055801561062c57826001600160a01b0316846001600160a01b03167f8c5be1e5ebec7d5bd14f71427d1e84f3dd0314c0f7b2291e5b200ac8c7c3b925846040516107c891815260200190565b60405180910390a350505050565b6001600160a01b0383166108015780600260008282546107f69190610c52565b909155506108739050565b6001600160a01b038316600090815260208190526040902054818110156108545760405163391434e360e21b81526001600160a01b038516600482015260248101829052604481018390526064016103ed565b6001600160a01b03841660009081526020819052604090209082900390555b6001600160a01b03821661088f576002805482900390556108ae565b6001600160a01b03821660009081526020819052604090208054820190555b816001600160a01b0316836001600160a01b03167fddf252ad1be2c89b69c2b068fc378daa952ba7f163c4a11628f55a4df523b3ef8360405161057891815260200190565b600060208083528351808285015260005b8181101561092057858101830151858201604001528201610904565b506000604082860101526040601f19601f8301168501019250505092915050565b80356001600160a01b038116811461095857600080fd5b919050565b6000806040838503121561097057600080fd5b61097983610941565b946020939093013593505050565b60008060006060848603121561099c57600080fd5b6109a584610941565b92506109b360208501610941565b9150604084013590509250925092565b60008083601f8401126109d557600080fd5b50813567ffffffffffffffff8111156109ed57600080fd5b602083019150836020828501011115610a0557600080fd5b9250929050565b600080600080600060608688031215610a2457600080fd5b85359450602086013567ffffffffffffffff80821115610a4357600080fd5b610a4f89838a016109c3565b90965094506040880135915080821115610a6857600080fd5b50610a75888289016109c3565b969995985093965092949392505050565b600060208284031215610a9857600080fd5b610aa182610941565b9392505050565b60008060408385031215610abb57600080fd5b82359150610acb60208401610941565b90509250929050565b60008060408385031215610ae757600080fd5b610af083610941565b9150610acb60208401610941565b600181811c90821680610b1257607f821691505b602082108103610b3257634e487b7160e01b600052602260045260246000fd5b50919050565b600082610b5557634e487b7160e01b600052601260045260246000fd5b500490565b60208082526071908201527f4173747269614d696e7461626c6545524332303a20696e73756666696369656e60408201527f742076616c75652c206d7573742062652067726561746572207468616e20313060608201527f202a2a2028544f4b454e5f444543494d414c53202d20424153455f434841494e6080820152705f41535345545f505245434953494f4e2960781b60a082015260c00190565b81835281816020850137506000828201602090810191909152601f909101601f19169091010190565b604081526000610c34604083018688610bf7565b8281036020840152610c47818587610bf7565b979650505050505050565b8082018082111561033d57634e487b7160e01b600052601160045260246000fdfea2646970667358221220b21f724561b91219f22da803c0b2d4bd10b7ab9bbd03b249f351b2942ce0bb7864736f6c63430008150033","linkReferences":{}},"methodIdentifiers":{"BASE_CHAIN_ASSET_PRECISION()":"7eb6dec7","BRIDGE()":"ee9a31a2","allowance(address,address)":"dd62ed3e","approve(address,uint256)":"095ea7b3","balanceOf(address)":"70a08231","decimals()":"313ce567","mint(address,uint256)":"40c10f19","name()":"06fdde03","symbol()":"95d89b41","totalSupply()":"18160ddd","transfer(address,uint256)":"a9059cbb","transferFrom(address,address,uint256)":"23b872dd","withdrawToIbcChain(uint256,string,string)":"5fe56b09","withdrawToSequencer(uint256,address)":"757e9874"},"id":5}